{"abi":[{"type":"function","name":"setUp","inputs":[],"outputs":[],"stateMutability":"nonpayable"},{"type":"function","name":"test_pass","inputs":[],"outputs":[],"stateMutability":"pure"}],"bytecode":{"object":"0x6080604052348015600f57600080fd5b50606f80601d6000396000f3fe6080604052348015600f57600080fd5b506004361060325760003560e01c80630a9254e41460375780638ab68152146037575b600080fd5b00fea2646970667358221220aa69f9cfc94f14df39cda6422a7e132d2739bb014375f0db718c31a4a8f2bf2b64736f6c63430008170033","linkReferences":{}},"methodIdentifiers":{"setUp()":"0a9254e4","test_pass()":"8ab68152"},"id":0}