{"abi":[{"type":"function","name":"getAvailablePairs","inputs":[],"outputs":[{"name":"","type":"address[]","internalType":"address[]"}],"stateMutability":"view"},{"type":"function","name":"getReserves","inputs":[{"name":"tokenA","type":"address","internalType":"address"},{"name":"tokenB","type":"address","internalType":"address"}],"outputs":[{"name":"reserveA","type":"uint256","internalType":"uint256"},{"name":"reserveB","type":"uint256","internalType":"uint256"}],"stateMutability":"view"},{"type":"function","name":"pools","inputs":[{"name":"","type":"address","internalType":"address"},{"name":"","type":"address","internalType":"address"}],"outputs":[{"name":"tokenA","type":"uint256","internalType":"uint256"},{"name":"tokenB","type":"uint256","internalType":"uint256"}],"stateMutability":"view"}],"bytecode":{"object":"0x608060405234801561001057600080fd5b5061021d806100206000396000f3fe608060405234801561001057600080fd5b50600436106100415760003560e01c806325240c7c14610046578063901754d714610064578063d52bb6f4146100a8575b600080fd5b61004e6100e9565b60405161005b919061014b565b60405180910390f35b6100936100723660046101b4565b60016020818152600093845260408085209091529183529120805491015482565b6040805192835260208301919091520161005b565b6100936100b63660046101b4565b6001600160a01b039182166000908152600160208181526040808420949095168352929092529190912080549101549091565b6060600080548060200260200160405190810160405280929190818152602001828054801561014157602002820191906000526020600020905b81546001600160a01b03168152600190910190602001808311610123575b5050505050905090565b6020808252825182820181905260009190848201906040850190845b8181101561018c5783516001600160a01b031683529284019291840191600101610167565b50909695505050505050565b80356001600160a01b03811681146101af57600080fd5b919050565b600080604083850312156101c757600080fd5b6101d083610198565b91506101de60208401610198565b9050925092905056fea26469706673582212209fced2fdbe68795caea5f127e69a636818dd9e2297f3a800690d76648afb620564736f6c63430008170033","linkReferences":{}},"methodIdentifiers":{"getAvailablePairs()":"25240c7c","getReserves(address,address)":"d52bb6f4","pools(address,address)":"901754d7"},"id":45}