{
    "abi": [
        {
            "type": "function",
            "name": "allPools",
            "inputs": [
                {
                    "name": "",
                    "type": "uint256",
                    "internalType": "uint256"
                }
            ],
            "outputs": [
                {
                    "name": "",
                    "type": "address",
                    "internalType": "address"
                }
            ],
            "stateMutability": "view"
        },
        {
            "type": "function",
            "name": "allPoolsLength",
            "inputs": [],
            "outputs": [
                {
                    "name": "",
                    "type": "uint256",
                    "internalType": "uint256"
                }
            ],
            "stateMutability": "view"
        },
        {
            "type": "function",
            "name": "createPool",
            "inputs": [
                {
                    "name": "tokenA",
                    "type": "address",
                    "internalType": "address"
                },
                {
                    "name": "tokenB",
                    "type": "address",
                    "internalType": "address"
                },
                {
                    "name": "owner",
                    "type": "address",
                    "internalType": "address"
                },
                {
                    "name": "platformFee",
                    "type": "uint256",
                    "internalType": "uint256"
                }
            ],
            "outputs": [
                {
                    "name": "pool",
                    "type": "address",
                    "internalType": "address"
                }
            ],
            "stateMutability": "nonpayable"
        },
        {
            "type": "function",
            "name": "getPool",
            "inputs": [
                {
                    "name": "",
                    "type": "address",
                    "internalType": "address"
                },
                {
                    "name": "",
                    "type": "address",
                    "internalType": "address"
                }
            ],
            "outputs": [
                {
                    "name": "",
                    "type": "address",
                    "internalType": "address"
                }
            ],
            "stateMutability": "view"
        },
        {
            "type": "function",
            "name": "initialize",
            "inputs": [
                {
                    "name": "owner",
                    "type": "address",
                    "internalType": "address"
                }
            ],
            "outputs": [],
            "stateMutability": "nonpayable"
        },
        {
            "type": "function",
            "name": "owner",
            "inputs": [],
            "outputs": [
                {
                    "name": "",
                    "type": "address",
                    "internalType": "address"
                }
            ],
            "stateMutability": "view"
        },
        {
            "type": "function",
            "name": "renounceOwnership",
            "inputs": [],
            "outputs": [],
            "stateMutability": "nonpayable"
        },
        {
            "type": "function",
            "name": "transferOwnership",
            "inputs": [
                {
                    "name": "newOwner",
                    "type": "address",
                    "internalType": "address"
                }
            ],
            "outputs": [],
            "stateMutability": "nonpayable"
        },
        {
            "type": "event",
            "name": "Initialized",
            "inputs": [
                {
                    "name": "version",
                    "type": "uint64",
                    "indexed": false,
                    "internalType": "uint64"
                }
            ],
            "anonymous": false
        },
        {
            "type": "event",
            "name": "OwnershipTransferred",
            "inputs": [
                {
                    "name": "previousOwner",
                    "type": "address",
                    "indexed": true,
                    "internalType": "address"
                },
                {
                    "name": "newOwner",
                    "type": "address",
                    "indexed": true,
                    "internalType": "address"
                }
            ],
            "anonymous": false
        },
        {
            "type": "event",
            "name": "PoolCreated",
            "inputs": [
                {
                    "name": "tokenA",
                    "type": "address",
                    "indexed": true,
                    "internalType": "address"
                },
                {
                    "name": "tokenB",
                    "type": "address",
                    "indexed": true,
                    "internalType": "address"
                },
                {
                    "name": "poolAddress",
                    "type": "address",
                    "indexed": false,
                    "internalType": "address"
                }
            ],
            "anonymous": false
        },
        {
            "type": "error",
            "name": "InvalidInitialization",
            "inputs": []
        },
        {
            "type": "error",
            "name": "NotInitializing",
            "inputs": []
        },
        {
            "type": "error",
            "name": "OwnableInvalidOwner",
            "inputs": [
                {
                    "name": "owner",
                    "type": "address",
                    "internalType": "address"
                }
            ]
        },
        {
            "type": "error",
            "name": "OwnableUnauthorizedAccount",
            "inputs": [
                {
                    "name": "account",
                    "type": "address",
                    "internalType": "address"
                }
            ]
        },
        {
            "type": "error",
            "name": "ReentrancyGuardReentrantCall",
            "inputs": []
        }
    ],
    "bytecode": {
        "object": "0x6080604052348015600f57600080fd5b506124208061001f6000396000f3fe608060405234801561001057600080fd5b50600436106100885760003560e01c806393c907b41161005b57806393c907b414610128578063c4d66de81461013b578063efde4e641461014e578063f2fde38b1461015f57600080fd5b806341d1de971461008d578063531aa03e146100bd578063715018a6146100ee5780638da5cb5b146100f8575b600080fd5b6100a061009b3660046107eb565b610172565b6040516001600160a01b0390911681526020015b60405180910390f35b6100a06100cb366004610820565b60006020818152928152604080822090935290815220546001600160a01b031681565b6100f661019c565b005b7f9016d09d72d40fdae2fd8ceac6b6234c7706214fd39c1cd1e609a0528c199300546001600160a01b03166100a0565b6100a0610136366004610853565b6101b0565b6100f661014936600461089e565b6104d2565b6001546040519081526020016100b4565b6100f661016d36600461089e565b6105ea565b6001818154811061018257600080fd5b6000918252602090912001546001600160a01b0316905081565b6101a4610628565b6101ae6000610683565b565b60006101ba610628565b6101c26106f4565b6001600160a01b038516158015906101e257506001600160a01b03841615155b6102335760405162461bcd60e51b815260206004820181905260248201527f466163746f72793a20696e76616c696420746f6b656e2061646472657373657360448201526064015b60405180910390fd5b836001600160a01b0316856001600160a01b03160361029f5760405162461bcd60e51b815260206004820152602260248201527f466163746f72793a206964656e746963616c20746f6b656e2061646472657373604482015261657360f01b606482015260840161022a565b6001600160a01b038581166000908152602081815260408083208885168452909152902054161580156102f557506001600160a01b03848116600090815260208181526040808320898516845290915290205416155b6103415760405162461bcd60e51b815260206004820152601c60248201527f466163746f72793a20706f6f6c20616c72656164792065786973747300000000604482015260640161022a565b60405161034d906107de565b604051809103906000f080158015610369573d6000803e3d6000fd5b506040516314d6c7d760e31b81526001600160a01b0387811660048301528681166024830152858116604483015260648201859052600a60848301529192509082169063a6b63eb89060a401600060405180830381600087803b1580156103cf57600080fd5b505af11580156103e3573d6000803e3d6000fd5b505050506001600160a01b0385811660008181526020818152604080832089861680855290835281842080549688166001600160a01b031997881681179091558484528285208686528452828520805488168217905560018054808201825595527fb10e2d527612073b26eecdfd717e6a320cf44b4afac2b0732d9fcbe2b7fa0cf690940180549096168417909555519182527f9c5d829b9b23efc461f9aeef91979ec04bb903feb3bee4f26d22114abfc7335b910160405180910390a36104ca60017f9b779b17422d0df92223018b32b4d1fa46e071723d6817e2486d003becc55f0055565b949350505050565b7ff0c57e16840df040f15088dc2f81fe391c3923bec73e23a9662efc9c229c6a008054600160401b810460ff16159067ffffffffffffffff166000811580156105185750825b905060008267ffffffffffffffff1660011480156105355750303b155b905081158015610543575080155b156105615760405163f92ee8a960e01b815260040160405180910390fd5b845467ffffffffffffffff19166001178555831561058b57845460ff60401b1916600160401b1785555b61059486610764565b61059c610775565b83156105e257845460ff60401b19168555604051600181527fc7f505b2f371ae2175ee4913f4499e1f2633a7b5936321eed1cdaeb6115181d29060200160405180910390a15b505050505050565b6105f2610628565b6001600160a01b03811661061c57604051631e4fbdf760e01b81526000600482015260240161022a565b61062581610683565b50565b3361065a7f9016d09d72d40fdae2fd8ceac6b6234c7706214fd39c1cd1e609a0528c199300546001600160a01b031690565b6001600160a01b0316146101ae5760405163118cdaa760e01b815233600482015260240161022a565b7f9016d09d72d40fdae2fd8ceac6b6234c7706214fd39c1cd1e609a0528c19930080546001600160a01b031981166001600160a01b03848116918217845560405192169182907f8be0079c531659141344cd1fd0a4f28419497f9722a3daafe3b4186f6b6457e090600090a3505050565b7f9b779b17422d0df92223018b32b4d1fa46e071723d6817e2486d003becc55f0080546001190161073857604051633ee5aeb560e01b815260040160405180910390fd5b60029055565b60017f9b779b17422d0df92223018b32b4d1fa46e071723d6817e2486d003becc55f0055565b61076c610785565b610625816107ce565b61077d610785565b6101ae6107d6565b7ff0c57e16840df040f15088dc2f81fe391c3923bec73e23a9662efc9c229c6a0054600160401b900460ff166101ae57604051631afcd79f60e31b815260040160405180910390fd5b6105f2610785565b61073e610785565b611b2a806108c183390190565b6000602082840312156107fd57600080fd5b5035919050565b80356001600160a01b038116811461081b57600080fd5b919050565b6000806040838503121561083357600080fd5b61083c83610804565b915061084a60208401610804565b90509250929050565b6000806000806080858703121561086957600080fd5b61087285610804565b935061088060208601610804565b925061088e60408601610804565b9396929550929360600135925050565b6000602082840312156108b057600080fd5b6108b982610804565b939250505056fe6080604052348015600f57600080fd5b50611b0b8061001f6000396000f3fe608060405234801561001057600080fd5b506004361061014d5760003560e01c8063715018a6116100c3578063a6b63eb81161007c578063a6b63eb81461030c578063a9059cbb1461031f578063aa0b598814610332578063dd62ed3e14610345578063f140a35a14610358578063f2fde38b1461036b57600080fd5b8063715018a6146102915780638da5cb5b1461029b57806395d89b41146102cb5780639c8f9f23146102d35780639cd441da146102e65780639f1d0f59146102f957600080fd5b806323b872dd1161011557806323b872dd1461020a57806326232a2e1461021d578063313ce56714610226578063449e815d146102355780635f64b55b1461024857806370a082311461025b57600080fd5b806306fdde03146101525780630902f1ac14610170578063095ea7b31461018b5780630fc63d10146101ae57806318160ddd146101d9575b600080fd5b61015a61037e565b604051610167919061166a565b60405180910390f35b60025460035460408051928352602083019190915201610167565b61019e6101993660046116d5565b610441565b6040519015158152602001610167565b6000546101c1906001600160a01b031681565b6040516001600160a01b039091168152602001610167565b7f52c63247e1f47db19d5ce0460030c497f067ca4cebf71ba98eeadabe20bace02545b604051908152602001610167565b61019e6102183660046116ff565b61045b565b6101fc60045481565b60405160128152602001610167565b6101fc6102433660046116d5565b61047f565b6001546101c1906001600160a01b031681565b6101fc61026936600461173b565b6001600160a01b03166000908152600080516020611a96833981519152602052604090205490565b610299610492565b005b7f9016d09d72d40fdae2fd8ceac6b6234c7706214fd39c1cd1e609a0528c199300546001600160a01b03166101c1565b61015a6104a6565b6102996102e1366004611756565b6104e5565b6102996102f436600461176f565b61071d565b610299610307366004611791565b6108e2565b61029961031a3660046117c4565b610b96565b61019e61032d3660046116d5565b610d3e565b610299610340366004611756565b610d4c565b6101fc610353366004611819565b610d59565b6101fc61036636600461184c565b610da3565b61029961037936600461173b565b610e42565b7f52c63247e1f47db19d5ce0460030c497f067ca4cebf71ba98eeadabe20bace038054606091600080516020611a96833981519152916103bd9061186f565b80601f01602080910402602001604051908101604052809291908181526020018280546103e99061186f565b80156104365780601f1061040b57610100808354040283529160200191610436565b820191906000526020600020905b81548152906001019060200180831161041957829003601f168201915b505050505091505090565b60003361044f818585610e7d565b60019150505b92915050565b600033610469858285610e8a565b610474858585610ef0565b506001949350505050565b600061048b8284610da3565b9392505050565b61049a610f4f565b6104a46000610faa565b565b7f52c63247e1f47db19d5ce0460030c497f067ca4cebf71ba98eeadabe20bace048054606091600080516020611a96833981519152916103bd9061186f565b6104ed61101b565b600081116105425760405162461bcd60e51b815260206004820152601860248201527f496e76616c6964206c697175696469747920616d6f756e74000000000000000060448201526064015b60405180910390fd5b600061056c7f52c63247e1f47db19d5ce0460030c497f067ca4cebf71ba98eeadabe20bace025490565b60025461057990846118bf565b61058391906118ec565b905060006105af7f52c63247e1f47db19d5ce0460030c497f067ca4cebf71ba98eeadabe20bace025490565b6003546105bc90856118bf565b6105c691906118ec565b90506105d23384611053565b60005460405163a9059cbb60e01b8152336004820152602481018490526001600160a01b039091169063a9059cbb906044016020604051808303816000875af1158015610623573d6000803e3d6000fd5b505050506040513d601f19601f82011682018060405250810190610647919061190e565b5060015460405163a9059cbb60e01b8152336004820152602481018390526001600160a01b039091169063a9059cbb906044016020604051808303816000875af1158015610699573d6000803e3d6000fd5b505050506040513d601f19601f820116820180604052508101906106bd919061190e565b506106c6611089565b604080518381526020810183905233917f96cd817c6329656790ef8fba7675405193677d39619571282f5e21f3a98cd059910160405180910390a2505061071a6001600080516020611ab683398151915255565b50565b61072561101b565b6000821180156107355750600081115b6107735760405162461bcd60e51b815260206004820152600f60248201526e496e76616c696420616d6f756e747360881b6044820152606401610539565b6000546040516323b872dd60e01b8152336004820152306024820152604481018490526001600160a01b03909116906323b872dd906064016020604051808303816000875af11580156107ca573d6000803e3d6000fd5b505050506040513d601f19601f820116820180604052508101906107ee919061190e565b506001546040516323b872dd60e01b8152336004820152306024820152604481018390526001600160a01b03909116906323b872dd906064016020604051808303816000875af1158015610846573d6000803e3d6000fd5b505050506040513d601f19601f8201168201806040525081019061086a919061190e565b506000610877838361117d565b9050610883338261119f565b61088b611089565b604080518481526020810184905233917fac1d76749e5447b7b16f5ab61447e1bd502f3bb4807af3b28e620d1700a6ee45910160405180910390a2506108de6001600080516020611ab683398151915255565b5050565b6108ea61101b565b6000546001600160a01b038481169116148061091357506001546001600160a01b038481169116145b6109575760405162461bcd60e51b8152602060048201526015602482015274496e76616c696420746f6b656e206164647265737360581b6044820152606401610539565b6000821161099e5760405162461bcd60e51b8152602060048201526014602482015273125b9d985b1a59081a5b9c1d5d08185b5bdd5b9d60621b6044820152606401610539565b600080546001600160a01b038581169116146109c5576000546001600160a01b03166109d2565b6001546001600160a01b03165b905060006109e08486610da3565b905082811015610a325760405162461bcd60e51b815260206004820152601a60248201527f496e73756666696369656e74206f757470757420616d6f756e740000000000006044820152606401610539565b6040516323b872dd60e01b8152336004820152306024820152604481018590526001600160a01b038616906323b872dd906064016020604051808303816000875af1158015610a85573d6000803e3d6000fd5b505050506040513d601f19601f82011682018060405250810190610aa9919061190e565b5060405163a9059cbb60e01b8152336004820152602481018290526001600160a01b0383169063a9059cbb906044016020604051808303816000875af1158015610af7573d6000803e3d6000fd5b505050506040513d601f19601f82011682018060405250810190610b1b919061190e565b50610b24611089565b604080516001600160a01b0387811682526020820187905284168183015260608101839052905133917f5380cf97d8f645d3c4896da60c053458dca03a3a31cec642ac80e1ddf0d8d02a919081900360800190a25050610b916001600080516020611ab683398151915255565b505050565b7ff0c57e16840df040f15088dc2f81fe391c3923bec73e23a9662efc9c229c6a008054600160401b810460ff16159067ffffffffffffffff16600081158015610bdc5750825b905060008267ffffffffffffffff166001148015610bf95750303b155b905081158015610c07575080155b15610c255760405163f92ee8a960e01b815260040160405180910390fd5b845467ffffffffffffffff191660011785558315610c4f57845460ff60401b1916600160401b1785555b610ca1604051806040016040528060158152602001744c697175696469747920506f6f6c20546f6b656e7360581b8152506040518060400160405280600381526020016213141560ea1b8152506111d5565b610ca96111e7565b610cb2886111f7565b600080546001600160a01b03808d166001600160a01b03199283161790925560018054928c1692909116919091179055600487905560058690558315610d3257845460ff60401b19168555604051600181527fc7f505b2f371ae2175ee4913f4499e1f2633a7b5936321eed1cdaeb6115181d29060200160405180910390a15b50505050505050505050565b60003361044f818585610ef0565b610d54610f4f565b600455565b6001600160a01b0391821660009081527f52c63247e1f47db19d5ce0460030c497f067ca4cebf71ba98eeadabe20bace016020908152604080832093909416825291909152205490565b6000805481906001600160a01b03848116911614610dc357600354610dc7565b6002545b60008054919250906001600160a01b03858116911614610de957600254610ded565b6003545b90506000612710600454612710610e049190611930565b610e0e90886118bf565b610e1891906118ec565b9050610e248184611943565b610e2e83836118bf565b610e3891906118ec565b9695505050505050565b610e4a610f4f565b6001600160a01b038116610e7457604051631e4fbdf760e01b815260006004820152602401610539565b61071a81610faa565b610b918383836001611208565b6000610e968484610d59565b90506000198114610eea5781811015610edb57604051637dc7a0d960e11b81526001600160a01b03841660048201526024810182905260448101839052606401610539565b610eea84848484036000611208565b50505050565b6001600160a01b038316610f1a57604051634b637e8f60e11b815260006004820152602401610539565b6001600160a01b038216610f445760405163ec442f0560e01b815260006004820152602401610539565b610b918383836112f0565b33610f817f9016d09d72d40fdae2fd8ceac6b6234c7706214fd39c1cd1e609a0528c199300546001600160a01b031690565b6001600160a01b0316146104a45760405163118cdaa760e01b8152336004820152602401610539565b7f9016d09d72d40fdae2fd8ceac6b6234c7706214fd39c1cd1e609a0528c19930080546001600160a01b031981166001600160a01b03848116918217845560405192169182907f8be0079c531659141344cd1fd0a4f28419497f9722a3daafe3b4186f6b6457e090600090a3505050565b600080516020611ab683398151915280546001190161104d57604051633ee5aeb560e01b815260040160405180910390fd5b60029055565b6001600160a01b03821661107d57604051634b637e8f60e11b815260006004820152602401610539565b6108de826000836112f0565b6000546040516370a0823160e01b81523060048201526001600160a01b03909116906370a0823190602401602060405180830381865afa1580156110d1573d6000803e3d6000fd5b505050506040513d601f19601f820116820180604052508101906110f59190611956565b6002556001546040516370a0823160e01b81523060048201526001600160a01b03909116906370a0823190602401602060405180830381865afa158015611140573d6000803e3d6000fd5b505050506040513d601f19601f820116820180604052508101906111649190611956565b600355565b6001600080516020611ab683398151915255565b60055460009061119561119084866118bf565b61142e565b61048b9190611930565b6001600160a01b0382166111c95760405163ec442f0560e01b815260006004820152602401610539565b6108de600083836112f0565b6111dd611516565b6108de828261155f565b6111ef611516565b6104a46115b0565b6111ff611516565b61071a816115b8565b600080516020611a968339815191526001600160a01b0385166112415760405163e602df0560e01b815260006004820152602401610539565b6001600160a01b03841661126b57604051634a1406b160e11b815260006004820152602401610539565b6001600160a01b038086166000908152600183016020908152604080832093881683529290522083905581156112e957836001600160a01b0316856001600160a01b03167f8c5be1e5ebec7d5bd14f71427d1e84f3dd0314c0f7b2291e5b200ac8c7c3b925856040516112e091815260200190565b60405180910390a35b5050505050565b600080516020611a968339815191526001600160a01b03841661132c57818160020160008282546113219190611943565b9091555061139e9050565b6001600160a01b0384166000908152602082905260409020548281101561137f5760405163391434e360e21b81526001600160a01b03861660048201526024810182905260448101849052606401610539565b6001600160a01b03851660009081526020839052604090209083900390555b6001600160a01b0383166113bc5760028101805483900390556113db565b6001600160a01b03831660009081526020829052604090208054830190555b826001600160a01b0316846001600160a01b03167fddf252ad1be2c89b69c2b068fc378daa952ba7f163c4a11628f55a4df523b3ef8460405161142091815260200190565b60405180910390a350505050565b60008160000361144057506000919050565b6000600161144d846115c0565b901c6001901b90506001818481611466576114666118d6565b048201901c9050600181848161147e5761147e6118d6565b048201901c90506001818481611496576114966118d6565b048201901c905060018184816114ae576114ae6118d6565b048201901c905060018184816114c6576114c66118d6565b048201901c905060018184816114de576114de6118d6565b048201901c905060018184816114f6576114f66118d6565b048201901c905061048b81828581611510576115106118d6565b04611654565b7ff0c57e16840df040f15088dc2f81fe391c3923bec73e23a9662efc9c229c6a0054600160401b900460ff166104a457604051631afcd79f60e31b815260040160405180910390fd5b611567611516565b600080516020611a968339815191527f52c63247e1f47db19d5ce0460030c497f067ca4cebf71ba98eeadabe20bace036115a184826119d5565b5060048101610eea83826119d5565b611169611516565b610e4a611516565b600080608083901c156115d557608092831c92015b604083901c156115e757604092831c92015b602083901c156115f957602092831c92015b601083901c1561160b57601092831c92015b600883901c1561161d57600892831c92015b600483901c1561162f57600492831c92015b600283901c1561164157600292831c92015b600183901c156104555760010192915050565b6000818310611663578161048b565b5090919050565b60006020808352835180602085015260005b818110156116985785810183015185820160400152820161167c565b506000604082860101526040601f19601f8301168501019250505092915050565b80356001600160a01b03811681146116d057600080fd5b919050565b600080604083850312156116e857600080fd5b6116f1836116b9565b946020939093013593505050565b60008060006060848603121561171457600080fd5b61171d846116b9565b925061172b602085016116b9565b9150604084013590509250925092565b60006020828403121561174d57600080fd5b61048b826116b9565b60006020828403121561176857600080fd5b5035919050565b6000806040838503121561178257600080fd5b50508035926020909101359150565b6000806000606084860312156117a657600080fd5b6117af846116b9565b95602085013595506040909401359392505050565b600080600080600060a086880312156117dc57600080fd5b6117e5866116b9565b94506117f3602087016116b9565b9350611801604087016116b9565b94979396509394606081013594506080013592915050565b6000806040838503121561182c57600080fd5b611835836116b9565b9150611843602084016116b9565b90509250929050565b6000806040838503121561185f57600080fd5b82359150611843602084016116b9565b600181811c9082168061188357607f821691505b6020821081036118a357634e487b7160e01b600052602260045260246000fd5b50919050565b634e487b7160e01b600052601160045260246000fd5b8082028115828204841417610455576104556118a9565b634e487b7160e01b600052601260045260246000fd5b60008261190957634e487b7160e01b600052601260045260246000fd5b500490565b60006020828403121561192057600080fd5b8151801515811461048b57600080fd5b81810381811115610455576104556118a9565b80820180821115610455576104556118a9565b60006020828403121561196857600080fd5b5051919050565b634e487b7160e01b600052604160045260246000fd5b601f821115610b91576000816000526020600020601f850160051c810160208610156119ae5750805b601f850160051c820191505b818110156119cd578281556001016119ba565b505050505050565b815167ffffffffffffffff8111156119ef576119ef61196f565b611a03816119fd845461186f565b84611985565b602080601f831160018114611a385760008415611a205750858301515b600019600386901b1c1916600185901b1785556119cd565b600085815260208120601f198616915b82811015611a6757888601518255948401946001909101908401611a48565b5085821015611a855787850151600019600388901b60f8161c191681555b5050505050600190811b0190555056fe52c63247e1f47db19d5ce0460030c497f067ca4cebf71ba98eeadabe20bace009b779b17422d0df92223018b32b4d1fa46e071723d6817e2486d003becc55f00a2646970667358221220e0423eae0aa90fc5ee1352ff74fa5459728b920dceca8eed2d5216ce9c6da6d364736f6c63430008190033a2646970667358221220797842634fa9397e7a3d892db59b45547bcbc6c66b7b652c54002433952a4baf64736f6c63430008190033",
        "linkReferences": {}
    },
    "methodIdentifiers": {
        "allPools(uint256)": "41d1de97",
        "allPoolsLength()": "efde4e64",
        "createPool(address,address,address,uint256)": "93c907b4",
        "getPool(address,address)": "531aa03e",
        "initialize(address)": "c4d66de8",
        "owner()": "8da5cb5b",
        "renounceOwnership()": "715018a6",
        "transferOwnership(address)": "f2fde38b"
    },
    "storageLayout": {
        "storage": [
            {
                "astId": 55327,
                "contract": "src/LiquidityPoolFactory.sol:LiquidityPoolFactory",
                "label": "getPool",
                "offset": 0,
                "slot": "0",
                "type": "t_mapping(t_address,t_mapping(t_address,t_address))"
            },
            {
                "astId": 55330,
                "contract": "src/LiquidityPoolFactory.sol:LiquidityPoolFactory",
                "label": "allPools",
                "offset": 0,
                "slot": "1",
                "type": "t_array(t_address)dyn_storage"
            }
        ],
        "types": {
            "t_address": {
                "encoding": "inplace",
                "label": "address",
                "numberOfBytes": "20"
            },
            "t_array(t_address)dyn_storage": {
                "encoding": "dynamic_array",
                "label": "address[]",
                "numberOfBytes": "32",
                "base": "t_address"
            },
            "t_mapping(t_address,t_address)": {
                "encoding": "mapping",
                "key": "t_address",
                "label": "mapping(address => address)",
                "numberOfBytes": "32",
                "value": "t_address"
            },
            "t_mapping(t_address,t_mapping(t_address,t_address))": {
                "encoding": "mapping",
                "key": "t_address",
                "label": "mapping(address => mapping(address => address))",
                "numberOfBytes": "32",
                "value": "t_mapping(t_address,t_address)"
            }
        }
    },
    "id": 47
}