{
    "abi": [
        {
            "type": "constructor",
            "inputs": [
                {
                    "name": "_token",
                    "type": "address",
                    "internalType": "contract GensToken"
                }
            ],
            "stateMutability": "nonpayable"
        },
        {
            "type": "function",
            "name": "pendingRewards",
            "inputs": [
                {
                    "name": "_user",
                    "type": "address",
                    "internalType": "address"
                }
            ],
            "outputs": [
                {
                    "name": "",
                    "type": "uint256",
                    "internalType": "uint256"
                }
            ],
            "stateMutability": "view"
        },
        {
            "type": "function",
            "name": "rewardRatePerDay",
            "inputs": [],
            "outputs": [
                {
                    "name": "",
                    "type": "uint256",
                    "internalType": "uint256"
                }
            ],
            "stateMutability": "view"
        },
        {
            "type": "function",
            "name": "stake",
            "inputs": [
                {
                    "name": "_amount",
                    "type": "uint256",
                    "internalType": "uint256"
                }
            ],
            "outputs": [],
            "stateMutability": "nonpayable"
        },
        {
            "type": "function",
            "name": "stakedAmount",
            "inputs": [
                {
                    "name": "_user",
                    "type": "address",
                    "internalType": "address"
                }
            ],
            "outputs": [
                {
                    "name": "",
                    "type": "uint256",
                    "internalType": "uint256"
                }
            ],
            "stateMutability": "view"
        },
        {
            "type": "function",
            "name": "stakes",
            "inputs": [
                {
                    "name": "",
                    "type": "address",
                    "internalType": "address"
                }
            ],
            "outputs": [
                {
                    "name": "amount",
                    "type": "uint256",
                    "internalType": "uint256"
                },
                {
                    "name": "rewardDebt",
                    "type": "uint256",
                    "internalType": "uint256"
                },
                {
                    "name": "lastStakedTime",
                    "type": "uint256",
                    "internalType": "uint256"
                }
            ],
            "stateMutability": "view"
        },
        {
            "type": "function",
            "name": "token",
            "inputs": [],
            "outputs": [
                {
                    "name": "",
                    "type": "address",
                    "internalType": "contract GensToken"
                }
            ],
            "stateMutability": "view"
        },
        {
            "type": "function",
            "name": "totalStaked",
            "inputs": [],
            "outputs": [
                {
                    "name": "",
                    "type": "uint256",
                    "internalType": "uint256"
                }
            ],
            "stateMutability": "view"
        },
        {
            "type": "function",
            "name": "unstake",
            "inputs": [
                {
                    "name": "_amount",
                    "type": "uint256",
                    "internalType": "uint256"
                }
            ],
            "outputs": [],
            "stateMutability": "nonpayable"
        },
        {
            "type": "event",
            "name": "Initialized",
            "inputs": [
                {
                    "name": "version",
                    "type": "uint64",
                    "indexed": false,
                    "internalType": "uint64"
                }
            ],
            "anonymous": false
        },
        {
            "type": "event",
            "name": "Staked",
            "inputs": [
                {
                    "name": "user",
                    "type": "address",
                    "indexed": true,
                    "internalType": "address"
                },
                {
                    "name": "amount",
                    "type": "uint256",
                    "indexed": false,
                    "internalType": "uint256"
                }
            ],
            "anonymous": false
        },
        {
            "type": "event",
            "name": "Unstaked",
            "inputs": [
                {
                    "name": "user",
                    "type": "address",
                    "indexed": true,
                    "internalType": "address"
                },
                {
                    "name": "amount",
                    "type": "uint256",
                    "indexed": false,
                    "internalType": "uint256"
                }
            ],
            "anonymous": false
        },
        {
            "type": "error",
            "name": "InvalidInitialization",
            "inputs": []
        },
        {
            "type": "error",
            "name": "NotInitializing",
            "inputs": []
        },
        {
            "type": "error",
            "name": "ReentrancyGuardReentrantCall",
            "inputs": []
        }
    ],
    "bytecode": {
        "object": "0x60806040526064600255348015601457600080fd5b5060405161072a38038061072a8339810160408190526031916055565b600080546001600160a01b0319166001600160a01b03929092169190911790556083565b600060208284031215606657600080fd5b81516001600160a01b0381168114607c57600080fd5b9392505050565b610698806100926000396000f3fe608060405234801561001057600080fd5b50600436106100885760003560e01c8063817b1cd21161005b578063817b1cd21461011a578063a694fc3a14610123578063f993185514610136578063fc0c546a1461015f57600080fd5b806316934fc41461008d5780632e17de78146100db57806331d7a262146100f057806337de060e14610111575b600080fd5b6100bb61009b366004610582565b600160208190526000918252604090912080549181015460029091015483565b604080519384526020840192909252908201526060015b60405180910390f35b6100ee6100e93660046105b2565b61018a565b005b6101036100fe366004610582565b610309565b6040519081526020016100d2565b61010360025481565b61010360035481565b6100ee6101313660046105b2565b610357565b610103610144366004610582565b6001600160a01b031660009081526001602052604090205490565b600054610172906001600160a01b031681565b6040516001600160a01b0390911681526020016100d2565b6101926104a7565b33600090815260016020526040902080548211156101f75760405162461bcd60e51b815260206004820152601a60248201527f496e73756666696369656e74207374616b656420616d6f756e7400000000000060448201526064015b60405180910390fd5b610200336104f1565b8181600001600082825461021491906105e1565b909155505060005460405163a9059cbb60e01b8152336004820152602481018490526001600160a01b039091169063a9059cbb906044016020604051808303816000875af115801561026a573d6000803e3d6000fd5b505050506040513d601f19601f8201168201806040525081019061028e91906105f4565b5081600360008282546102a191906105e1565b909155505060405182815233907f0f5bb82176feb1b5e747e28471aa92156a04d9f3ab9f45f28e2d704232b93f75906020015b60405180910390a25061030660017f9b779b17422d0df92223018b32b4d1fa46e071723d6817e2486d003becc55f0055565b50565b6001600160a01b038116600090815260016020526040812080546002820154839161033d9161033890426105e1565b61054f565b905080826001015461034f9190610616565b949350505050565b61035f6104a7565b600081116103a75760405162461bcd60e51b815260206004820152601560248201527443616e6e6f74207374616b65203020746f6b656e7360581b60448201526064016101ee565b336000818152600160205260409020906103c0906104f1565b6000546040516323b872dd60e01b8152336004820152306024820152604481018490526001600160a01b03909116906323b872dd906064016020604051808303816000875af1158015610417573d6000803e3d6000fd5b505050506040513d601f19601f8201168201806040525081019061043b91906105f4565b50818160000160008282546104509190610616565b909155505042600282015560038054839190600090610470908490610616565b909155505060405182815233907f9e71bc8eea02a63969f509818f2dafb9254532904319f9dbda79b67bd34a5f3d906020016102d4565b7f9b779b17422d0df92223018b32b4d1fa46e071723d6817e2486d003becc55f008054600119016104eb57604051633ee5aeb560e01b815260040160405180910390fd5b60029055565b6001600160a01b038116600090815260016020526040902080541561054b57805460028201546000916105289161033890426105e1565b90508082600101600082825461053e9190610616565b9091555050426002830155505b5050565b600063337f980082600254856105659190610629565b61056f9190610629565b6105799190610640565b90505b92915050565b60006020828403121561059457600080fd5b81356001600160a01b03811681146105ab57600080fd5b9392505050565b6000602082840312156105c457600080fd5b5035919050565b634e487b7160e01b600052601160045260246000fd5b8181038181111561057c5761057c6105cb565b60006020828403121561060657600080fd5b815180151581146105ab57600080fd5b8082018082111561057c5761057c6105cb565b808202811582820484141761057c5761057c6105cb565b60008261065d57634e487b7160e01b600052601260045260246000fd5b50049056fea26469706673582212202934935748993bb829483580f5bc2aa6e7679a8be1c4760829ec474a1335e50164736f6c63430008190033",
        "linkReferences": {}
    },
    "methodIdentifiers": {
        "pendingRewards(address)": "31d7a262",
        "rewardRatePerDay()": "37de060e",
        "stake(uint256)": "a694fc3a",
        "stakedAmount(address)": "f9931855",
        "stakes(address)": "16934fc4",
        "token()": "fc0c546a",
        "totalStaked()": "817b1cd2",
        "unstake(uint256)": "2e17de78"
    },
    "id": 31
}