{"abi":[{"type":"constructor","inputs":[{"name":"initialSupply","type":"uint256","internalType":"uint256"}],"stateMutability":"nonpayable"},{"type":"function","name":"allowance","inputs":[{"name":"owner","type":"address","internalType":"address"},{"name":"spender","type":"address","internalType":"address"}],"outputs":[{"name":"","type":"uint256","internalType":"uint256"}],"stateMutability":"view"},{"type":"function","name":"approve","inputs":[{"name":"spender","type":"address","internalType":"address"},{"name":"amount","type":"uint256","internalType":"uint256"}],"outputs":[{"name":"","type":"bool","internalType":"bool"}],"stateMutability":"nonpayable"},{"type":"function","name":"balanceOf","inputs":[{"name":"account","type":"address","internalType":"address"}],"outputs":[{"name":"","type":"uint256","internalType":"uint256"}],"stateMutability":"view"},{"type":"function","name":"buyToken","inputs":[],"outputs":[],"stateMutability":"payable"},{"type":"function","name":"decimals","inputs":[],"outputs":[{"name":"","type":"uint8","internalType":"uint8"}],"stateMutability":"view"},{"type":"function","name":"name","inputs":[],"outputs":[{"name":"","type":"string","internalType":"string"}],"stateMutability":"view"},{"type":"function","name":"sellToken","inputs":[{"name":"amount","type":"uint256","internalType":"uint256"}],"outputs":[],"stateMutability":"nonpayable"},{"type":"function","name":"symbol","inputs":[],"outputs":[{"name":"","type":"string","internalType":"string"}],"stateMutability":"view"},{"type":"function","name":"tokenPrice","inputs":[],"outputs":[{"name":"","type":"uint256","internalType":"uint256"}],"stateMutability":"view"},{"type":"function","name":"totalSupply","inputs":[],"outputs":[{"name":"","type":"uint256","internalType":"uint256"}],"stateMutability":"view"},{"type":"function","name":"transfer","inputs":[{"name":"recipient","type":"address","internalType":"address"},{"name":"amount","type":"uint256","internalType":"uint256"}],"outputs":[{"name":"","type":"bool","internalType":"bool"}],"stateMutability":"nonpayable"},{"type":"function","name":"transferFrom","inputs":[{"name":"sender","type":"address","internalType":"address"},{"name":"recipient","type":"address","internalType":"address"},{"name":"amount","type":"uint256","internalType":"uint256"}],"outputs":[{"name":"","type":"bool","internalType":"bool"}],"stateMutability":"nonpayable"},{"type":"event","name":"Approval","inputs":[{"name":"owner","type":"address","indexed":true,"internalType":"address"},{"name":"spender","type":"address","indexed":true,"internalType":"address"},{"name":"value","type":"uint256","indexed":false,"internalType":"uint256"}],"anonymous":false},{"type":"event","name":"Transfer","inputs":[{"name":"from","type":"address","indexed":true,"internalType":"address"},{"name":"to","type":"address","indexed":true,"internalType":"address"},{"name":"value","type":"uint256","indexed":false,"internalType":"uint256"}],"anonymous":false}],"bytecode":{"object":"0x6080604052600160005534801561001557600080fd5b50604051610b90380380610b9083398101604081905261003491610127565b61003e3382610044565b50610167565b6001600160a01b03821661009e5760405162461bcd60e51b815260206004820152601f60248201527f45524332303a206d696e7420746f20746865207a65726f206164647265737300604482015260640160405180910390fd5b80600360008282546100b09190610140565b90915550506001600160a01b038216600090815260016020526040812080548392906100dd908490610140565b90915550506040518181526001600160a01b038316906000907fddf252ad1be2c89b69c2b068fc378daa952ba7f163c4a11628f55a4df523b3ef9060200160405180910390a35050565b60006020828403121561013957600080fd5b5051919050565b8082018082111561016157634e487b7160e01b600052601160045260246000fd5b92915050565b610a1a806101766000396000f3fe6080604052600436106100a75760003560e01c806370a082311161006457806370a08231146101ac5780637ff9b596146101e257806395d89b41146101f8578063a482171914610227578063a9059cbb1461022f578063dd62ed3e1461024f57600080fd5b806306fdde03146100ac578063095ea7b3146100f457806318160ddd146101245780632397e4d71461014357806323b872dd14610165578063313ce56714610185575b600080fd5b3480156100b857600080fd5b506100de6040518060400160405280600681526020016547656e65737360d01b81525081565b6040516100eb9190610830565b60405180910390f35b34801561010057600080fd5b5061011461010f36600461089b565b610295565b60405190151581526020016100eb565b34801561013057600080fd5b506003545b6040519081526020016100eb565b34801561014f57600080fd5b5061016361015e3660046108c5565b6102ac565b005b34801561017157600080fd5b506101146101803660046108de565b610364565b34801561019157600080fd5b5061019a600a81565b60405160ff90911681526020016100eb565b3480156101b857600080fd5b506101356101c736600461091a565b6001600160a01b031660009081526001602052604090205490565b3480156101ee57600080fd5b5061013560005481565b34801561020457600080fd5b506100de6040518060400160405280600381526020016223a2a760e91b81525081565b6101636103b6565b34801561023b57600080fd5b5061011461024a36600461089b565b6103d3565b34801561025b57600080fd5b5061013561026a36600461093c565b6001600160a01b03918216600090815260026020908152604080832093909416825291909152205490565b60006102a23384846103e0565b5060015b92915050565b3360009081526001602052604090205481111561031b5760405162461bcd60e51b815260206004820152602260248201527f45524332303a206275726e20616d6f756e7420657863656564732062616c616e604482015261636560f01b60648201526084015b60405180910390fd5b6103253382610505565b60005433906108fc906103389084610985565b6040518115909202916000818181858888f19350505050158015610360573d6000803e3d6000fd5b5050565b60006103718484846105f1565b6001600160a01b0384166000908152600260209081526040808320338085529252909120546103ac9186916103a79086906109a7565b6103e0565b5060019392505050565b600080546103c490346109ba565b90506103d03382610758565b50565b60006102a23384846105f1565b6001600160a01b0383166104425760405162461bcd60e51b8152602060048201526024808201527f45524332303a20617070726f76652066726f6d20746865207a65726f206164646044820152637265737360e01b6064820152608401610312565b6001600160a01b0382166104a35760405162461bcd60e51b815260206004820152602260248201527f45524332303a20617070726f766520746f20746865207a65726f206164647265604482015261737360f01b6064820152608401610312565b6001600160a01b0383811660008181526002602090815260408083209487168084529482529182902085905590518481527f8c5be1e5ebec7d5bd14f71427d1e84f3dd0314c0f7b2291e5b200ac8c7c3b92591015b60405180910390a3505050565b6001600160a01b0382166105655760405162461bcd60e51b815260206004820152602160248201527f45524332303a206275726e2066726f6d20746865207a65726f206164647265736044820152607360f81b6064820152608401610312565b6001600160a01b0382166000908152600160205260408120805483929061058d9084906109a7565b9250508190555080600360008282546105a691906109a7565b90915550506040518181526000906001600160a01b038416907fddf252ad1be2c89b69c2b068fc378daa952ba7f163c4a11628f55a4df523b3ef906020015b60405180910390a35050565b6001600160a01b0383166106555760405162461bcd60e51b815260206004820152602560248201527f45524332303a207472616e736665722066726f6d20746865207a65726f206164604482015264647265737360d81b6064820152608401610312565b6001600160a01b0382166106b75760405162461bcd60e51b815260206004820152602360248201527f45524332303a207472616e7366657220746f20746865207a65726f206164647260448201526265737360e81b6064820152608401610312565b6001600160a01b038316600090815260016020526040812080548392906106df9084906109a7565b90915550506001600160a01b0382166000908152600160205260408120805483929061070c9084906109d1565b92505081905550816001600160a01b0316836001600160a01b03167fddf252ad1be2c89b69c2b068fc378daa952ba7f163c4a11628f55a4df523b3ef836040516104f891815260200190565b6001600160a01b0382166107ae5760405162461bcd60e51b815260206004820152601f60248201527f45524332303a206d696e7420746f20746865207a65726f2061646472657373006044820152606401610312565b80600360008282546107c091906109d1565b90915550506001600160a01b038216600090815260016020526040812080548392906107ed9084906109d1565b90915550506040518181526001600160a01b038316906000907fddf252ad1be2c89b69c2b068fc378daa952ba7f163c4a11628f55a4df523b3ef906020016105e5565b60006020808352835180602085015260005b8181101561085e57858101830151858201604001528201610842565b506000604082860101526040601f19601f8301168501019250505092915050565b80356001600160a01b038116811461089657600080fd5b919050565b600080604083850312156108ae57600080fd5b6108b78361087f565b946020939093013593505050565b6000602082840312156108d757600080fd5b5035919050565b6000806000606084860312156108f357600080fd5b6108fc8461087f565b925061090a6020850161087f565b9150604084013590509250925092565b60006020828403121561092c57600080fd5b6109358261087f565b9392505050565b6000806040838503121561094f57600080fd5b6109588361087f565b91506109666020840161087f565b90509250929050565b634e487b7160e01b600052601160045260246000fd5b6000826109a257634e487b7160e01b600052601260045260246000fd5b500490565b818103818111156102a6576102a661096f565b80820281158282048414176102a6576102a661096f565b808201808211156102a6576102a661096f56fea26469706673582212209c8f65f315925fe39de46ca139db86f8ae07ee38e70360f8048dbbd45f7954ab64736f6c63430008170033","linkReferences":{}},"methodIdentifiers":{"allowance(address,address)":"dd62ed3e","approve(address,uint256)":"095ea7b3","balanceOf(address)":"70a08231","buyToken()":"a4821719","decimals()":"313ce567","name()":"06fdde03","sellToken(uint256)":"2397e4d7","symbol()":"95d89b41","tokenPrice()":"7ff9b596","totalSupply()":"18160ddd","transfer(address,uint256)":"a9059cbb","transferFrom(address,address,uint256)":"23b872dd"},"id":35}