{"abi":[{"type":"constructor","inputs":[{"name":"_stakingToken","type":"address","internalType":"address"}],"stateMutability":"nonpayable"},{"type":"function","name":"claimRewards","inputs":[],"outputs":[],"stateMutability":"nonpayable"},{"type":"function","name":"getStakedAmount","inputs":[{"name":"_user","type":"address","internalType":"address"}],"outputs":[{"name":"","type":"uint256","internalType":"uint256"}],"stateMutability":"view"},{"type":"function","name":"getStakingStats","inputs":[],"outputs":[{"name":"stakedAmount","type":"uint256","internalType":"uint256"},{"name":"rewardRate","type":"uint256","internalType":"uint256"}],"stateMutability":"view"},{"type":"function","name":"pendingRewards","inputs":[{"name":"_user","type":"address","internalType":"address"}],"outputs":[{"name":"","type":"uint256","internalType":"uint256"}],"stateMutability":"view"},{"type":"function","name":"rewardRatePerDay","inputs":[],"outputs":[{"name":"","type":"uint256","internalType":"uint256"}],"stateMutability":"view"},{"type":"function","name":"stake","inputs":[{"name":"_amount","type":"uint256","internalType":"uint256"}],"outputs":[],"stateMutability":"nonpayable"},{"type":"function","name":"stakes","inputs":[{"name":"","type":"address","internalType":"address"}],"outputs":[{"name":"amount","type":"uint256","internalType":"uint256"},{"name":"rewardDebt","type":"uint256","internalType":"uint256"},{"name":"lastStakedTime","type":"uint256","internalType":"uint256"}],"stateMutability":"view"},{"type":"function","name":"stakingToken","inputs":[],"outputs":[{"name":"","type":"address","internalType":"contract Token"}],"stateMutability":"view"},{"type":"function","name":"totalStaked","inputs":[],"outputs":[{"name":"","type":"uint256","internalType":"uint256"}],"stateMutability":"view"},{"type":"function","name":"unstake","inputs":[{"name":"_amount","type":"uint256","internalType":"uint256"}],"outputs":[],"stateMutability":"nonpayable"},{"type":"event","name":"RewardsClaimed","inputs":[{"name":"user","type":"address","indexed":true,"internalType":"address"},{"name":"rewardAmount","type":"uint256","indexed":false,"internalType":"uint256"}],"anonymous":false},{"type":"event","name":"RewardsUpdated","inputs":[{"name":"user","type":"address","indexed":true,"internalType":"address"},{"name":"rewardDebt","type":"uint256","indexed":false,"internalType":"uint256"},{"name":"accumulatedReward","type":"uint256","indexed":false,"internalType":"uint256"}],"anonymous":false},{"type":"event","name":"Staked","inputs":[{"name":"user","type":"address","indexed":true,"internalType":"address"},{"name":"amount","type":"uint256","indexed":false,"internalType":"uint256"}],"anonymous":false},{"type":"event","name":"Unstaked","inputs":[{"name":"user","type":"address","indexed":true,"internalType":"address"},{"name":"amount","type":"uint256","indexed":false,"internalType":"uint256"}],"anonymous":false},{"type":"error","name":"ReentrancyGuardReentrantCall","inputs":[]}],"bytecode":{"object":"0x6080604052606460035534801561001557600080fd5b506040516108b83803806108b883398101604081905261003491610063565b6001600081905580546001600160a01b0319166001600160a01b03929092169190911790556064600355610093565b60006020828403121561007557600080fd5b81516001600160a01b038116811461008c57600080fd5b9392505050565b610816806100a26000396000f3fe608060405234801561001057600080fd5b506004361061009e5760003560e01c80634da6a556116100665780634da6a5561461013857806372f702f314610161578063817b1cd21461018c578063a694fc3a14610195578063c1dd6084146101a857600080fd5b806316934fc4146100a35780632e17de78146100f157806331d7a26214610106578063372500ab1461012757806337de060e1461012f575b600080fd5b6100d16100b1366004610700565b600260208190526000918252604090912080546001820154919092015483565b604080519384526020840192909252908201526060015b60405180910390f35b6101046100ff366004610730565b6101c3565b005b610119610114366004610700565b610323565b6040519081526020016100e8565b610104610375565b61011960035481565b610119610146366004610700565b6001600160a01b031660009081526002602052604090205490565b600154610174906001600160a01b031681565b6040516001600160a01b0390911681526020016100e8565b61011960045481565b6101046101a3366004610730565b6104a0565b600454600354604080519283526020830191909152016100e8565b6101cb6105f0565b33600090815260026020526040902080548211156102305760405162461bcd60e51b815260206004820152601a60248201527f496e73756666696369656e74207374616b656420616d6f756e7400000000000060448201526064015b60405180910390fd5b6102393361061a565b8181600001600082825461024d919061075f565b909155505060015460405163a9059cbb60e01b8152336004820152602481018490526001600160a01b039091169063a9059cbb906044016020604051808303816000875af11580156102a3573d6000803e3d6000fd5b505050506040513d601f19601f820116820180604052508101906102c79190610772565b5081600460008282546102da919061075f565b909155505060405182815233907f0f5bb82176feb1b5e747e28471aa92156a04d9f3ab9f45f28e2d704232b93f75906020015b60405180910390a2506103206001600055565b50565b6001600160a01b038116600090815260026020819052604082208054918101549091839161035b9190610356904261075f565b6106c1565b905080826001015461036d9190610794565b949350505050565b61037d6105f0565b336000818152600260205260409020906103969061061a565b6001810154806103de5760405162461bcd60e51b81526020600482015260136024820152724e6f207265776172647320746f20636c61696d60681b6044820152606401610227565b60006001838101919091555460405163a9059cbb60e01b8152336004820152602481018390526001600160a01b039091169063a9059cbb906044016020604051808303816000875af1158015610438573d6000803e3d6000fd5b505050506040513d601f19601f8201168201806040525081019061045c9190610772565b5060405181815233907ffc30cddea38e2bf4d6ea7d3f9ed3b6ad7f176419f4963bd81318067a4aee73fe9060200160405180910390a2505061049e6001600055565b565b6104a86105f0565b600081116104f05760405162461bcd60e51b815260206004820152601560248201527443616e6e6f74207374616b65203020746f6b656e7360581b6044820152606401610227565b336000818152600260205260409020906105099061061a565b6001546040516323b872dd60e01b8152336004820152306024820152604481018490526001600160a01b03909116906323b872dd906064016020604051808303816000875af1158015610560573d6000803e3d6000fd5b505050506040513d601f19601f820116820180604052508101906105849190610772565b50818160000160008282546105999190610794565b9091555050426002820155600480548391906000906105b9908490610794565b909155505060405182815233907f9e71bc8eea02a63969f509818f2dafb9254532904319f9dbda79b67bd34a5f3d9060200161030d565b60026000540361061357604051633ee5aeb560e01b815260040160405180910390fd5b6002600055565b6001600160a01b03811660009081526002602052604090208054156106bd578054600282015460009161065191610356904261075f565b9050808260010160008282546106679190610794565b9091555050426002830155600182015460408051918252602082018390526001600160a01b038516917fca40132af767b10947fd7de6fe4074613c5850cc28b8d0aa94adb189bfb716be910160405180910390a2505b5050565b60006127106201518083600354866106d991906107a7565b6106e391906107a7565b6106ed91906107be565b6106f791906107be565b90505b92915050565b60006020828403121561071257600080fd5b81356001600160a01b038116811461072957600080fd5b9392505050565b60006020828403121561074257600080fd5b5035919050565b634e487b7160e01b600052601160045260246000fd5b818103818111156106fa576106fa610749565b60006020828403121561078457600080fd5b8151801515811461072957600080fd5b808201808211156106fa576106fa610749565b80820281158282048414176106fa576106fa610749565b6000826107db57634e487b7160e01b600052601260045260246000fd5b50049056fea26469706673582212202ae8460be23a35b28ab709423913c6d7795776ab9f1cc407c7c0401c7ea9e59f64736f6c63430008140033","linkReferences":{}},"methodIdentifiers":{"claimRewards()":"372500ab","getStakedAmount(address)":"4da6a556","getStakingStats()":"c1dd6084","pendingRewards(address)":"31d7a262","rewardRatePerDay()":"37de060e","stake(uint256)":"a694fc3a","stakes(address)":"16934fc4","stakingToken()":"72f702f3","totalStaked()":"817b1cd2","unstake(uint256)":"2e17de78"},"storageLayout":{"storage":[{"astId":51769,"contract":"src/Staking.sol:Staking","label":"_status","offset":0,"slot":"0","type":"t_uint256"},{"astId":57043,"contract":"src/Staking.sol:Staking","label":"stakingToken","offset":0,"slot":"1","type":"t_contract(Token)58041"},{"astId":57055,"contract":"src/Staking.sol:Staking","label":"stakes","offset":0,"slot":"2","type":"t_mapping(t_address,t_struct(Stake)57050_storage)"},{"astId":57058,"contract":"src/Staking.sol:Staking","label":"rewardRatePerDay","offset":0,"slot":"3","type":"t_uint256"},{"astId":57060,"contract":"src/Staking.sol:Staking","label":"totalStaked","offset":0,"slot":"4","type":"t_uint256"}],"types":{"t_address":{"encoding":"inplace","label":"address","numberOfBytes":"20"},"t_contract(Token)58041":{"encoding":"inplace","label":"contract Token","numberOfBytes":"20"},"t_mapping(t_address,t_struct(Stake)57050_storage)":{"encoding":"mapping","key":"t_address","label":"mapping(address => struct Staking.Stake)","numberOfBytes":"32","value":"t_struct(Stake)57050_storage"},"t_struct(Stake)57050_storage":{"encoding":"inplace","label":"struct Staking.Stake","numberOfBytes":"96","members":[{"astId":57045,"contract":"src/Staking.sol:Staking","label":"amount","offset":0,"slot":"0","type":"t_uint256"},{"astId":57047,"contract":"src/Staking.sol:Staking","label":"rewardDebt","offset":0,"slot":"1","type":"t_uint256"},{"astId":57049,"contract":"src/Staking.sol:Staking","label":"lastStakedTime","offset":0,"slot":"2","type":"t_uint256"}]},"t_uint256":{"encoding":"inplace","label":"uint256","numberOfBytes":"32"}}},"id":56}