{"abi":[{"type":"constructor","inputs":[{"name":"accessManager","type":"address","internalType":"address"}],"stateMutability":"nonpayable"},{"type":"function","name":"authority","inputs":[],"outputs":[{"name":"","type":"address","internalType":"address"}],"stateMutability":"view"},{"type":"function","name":"banUser","inputs":[{"name":"_userAddress","type":"address","internalType":"address"}],"outputs":[],"stateMutability":"nonpayable"},{"type":"function","name":"getRegisteredUserIds","inputs":[],"outputs":[{"name":"","type":"uint256[]","internalType":"uint256[]"}],"stateMutability":"view"},{"type":"function","name":"getUserId","inputs":[{"name":"_address","type":"address","internalType":"address"}],"outputs":[{"name":"","type":"uint256","internalType":"uint256"}],"stateMutability":"view"},{"type":"function","name":"isConsumingScheduledOp","inputs":[],"outputs":[{"name":"","type":"bytes4","internalType":"bytes4"}],"stateMutability":"view"},{"type":"function","name":"isRegisteredUser","inputs":[{"name":"_address","type":"address","internalType":"address"}],"outputs":[{"name":"","type":"bool","internalType":"bool"}],"stateMutability":"view"},{"type":"function","name":"isUserBanned","inputs":[{"name":"_userAddress","type":"address","internalType":"address"}],"outputs":[{"name":"","type":"bool","internalType":"bool"}],"stateMutability":"view"},{"type":"function","name":"registerUser","inputs":[{"name":"_name","type":"string","internalType":"string"}],"outputs":[],"stateMutability":"nonpayable"},{"type":"function","name":"setAuthority","inputs":[{"name":"newAuthority","type":"address","internalType":"address"}],"outputs":[],"stateMutability":"nonpayable"},{"type":"function","name":"transferUserId","inputs":[{"name":"_oldAddress","type":"address","internalType":"address"},{"name":"_newAddress","type":"address","internalType":"address"}],"outputs":[],"stateMutability":"nonpayable"},{"type":"function","name":"unbanUser","inputs":[{"name":"_userAddress","type":"address","internalType":"address"}],"outputs":[],"stateMutability":"nonpayable"},{"type":"function","name":"users","inputs":[{"name":"","type":"address","internalType":"address"}],"outputs":[{"name":"id","type":"uint256","internalType":"uint256"},{"name":"name","type":"string","internalType":"string"},{"name":"isBanned","type":"bool","internalType":"bool"}],"stateMutability":"view"},{"type":"event","name":"AuthorityUpdated","inputs":[{"name":"authority","type":"address","indexed":false,"internalType":"address"}],"anonymous":false},{"type":"event","name":"UserBanned","inputs":[{"name":"userAddress","type":"address","indexed":true,"internalType":"address"},{"name":"userId","type":"uint256","indexed":false,"internalType":"uint256"}],"anonymous":false},{"type":"event","name":"UserRegistered","inputs":[{"name":"userAddress","type":"address","indexed":true,"internalType":"address"},{"name":"userId","type":"uint256","indexed":false,"internalType":"uint256"}],"anonymous":false},{"type":"event","name":"UserUnbanned","inputs":[{"name":"userAddress","type":"address","indexed":true,"internalType":"address"},{"name":"userId","type":"uint256","indexed":false,"internalType":"uint256"}],"anonymous":false},{"type":"error","name":"AccessManagedInvalidAuthority","inputs":[{"name":"authority","type":"address","internalType":"address"}]},{"type":"error","name":"AccessManagedRequiredDelay","inputs":[{"name":"caller","type":"address","internalType":"address"},{"name":"delay","type":"uint32","internalType":"uint32"}]},{"type":"error","name":"AccessManagedUnauthorized","inputs":[{"name":"caller","type":"address","internalType":"address"}]}],"bytecode":{"object":"0x608060405234801561001057600080fd5b506040516111c63803806111c683398101604081905261002f91610094565b8061003981610040565b50506100c4565b600080546001600160a01b0319166001600160a01b0383169081179091556040519081527f2f658b440c35314f52658ea8a740e05b284cdc84dc9ae01e891f21b8933e7cad9060200160405180910390a150565b6000602082840312156100a657600080fd5b81516001600160a01b03811681146100bd57600080fd5b9392505050565b6110f3806100d36000396000f3fe608060405234801561001057600080fd5b50600436106100b45760003560e01c80637a9e5e4b116100715780637a9e5e4b146101665780638fb3603714610179578063998528291461019a5780639ed9b4fd146101af578063a87430ba146101c2578063bf7e214f146101e457600080fd5b806310d86b1f146100b95780631f5bdf5d146100ce5780632b956ff7146100f65780634d12b6951461012d57806369852c8a14610140578063704f1b9414610153575b600080fd5b6100cc6100c7366004610c71565b6101ff565b005b6100e16100dc366004610c71565b6102be565b60405190151581526020015b60405180910390f35b61011f610104366004610c71565b6001600160a01b031660009081526001602052604090205490565b6040519081526020016100ed565b6100cc61013b366004610c71565b6102db565b6100cc61014e366004610c8c565b6103e2565b6100cc610161366004610cd5565b610622565b6100cc610174366004610c71565b610739565b6101816107b3565b6040516001600160e01b031990911681526020016100ed565b6101a26107d9565b6040516100ed9190610d86565b6100e16101bd366004610c71565b6107e5565b6101d56101d0366004610c71565b61081d565b6040516100ed93929190610dee565b6000546040516001600160a01b0390911681526020016100ed565b61020c335b6000366108ca565b610215816102be565b61025c5760405162461bcd60e51b8152602060048201526013602482015272155cd95c881b9bdd081c9959da5cdd195c9959606a1b60448201526064015b60405180910390fd5b6001600160a01b03811660008181526001602081815260409283902060028101805460ff1916909317909255905491519182527fd47d10d20745ca261609da04f2be5d753e72753697166d0788294a90f63385ce91015b60405180910390a250565b6001600160a01b0316600090815260016020526040902054151590565b6102e433610204565b6102ed816102be565b61032f5760405162461bcd60e51b8152602060048201526013602482015272155cd95c881b9bdd081c9959da5cdd195c9959606a1b6044820152606401610253565b6001600160a01b03811660009081526001602052604090206002015460ff1661038c5760405162461bcd60e51b815260206004820152600f60248201526e155cd95c881b9bdd0818985b9b9959608a1b6044820152606401610253565b6001600160a01b03811660008181526001602090815260409182902060028101805460ff191690555491519182527fea171eb708881d69efb9931dcca95ea6827f6fb5a1471ff9f8eda431bc3175d691016102b3565b6103eb33610204565b6103f4826102be565b6104405760405162461bcd60e51b815260206004820152601a60248201527f4f6c642061646472657373206e6f7420726567697374657265640000000000006044820152606401610253565b610449816102be565b156104965760405162461bcd60e51b815260206004820152601e60248201527f4e6577206164647265737320616c7265616479207265676973746572656400006044820152606401610253565b6001600160a01b038216600090815260016020819052604082208054910180549192916104c290610e30565b80601f01602080910402602001604051908101604052809291908181526020018280546104ee90610e30565b801561053b5780601f106105105761010080835404028352916020019161053b565b820191906000526020600020905b81548152906001019060200180831161051e57829003601f168201915b5050506001600160a01b0387166000908152600160208190526040822082815594955090925061056e9150830182610bff565b50600201805460ff1916905560408051606081018252838152602080820184815260008385018190526001600160a01b038816815260019283905293909320825181559251919291908201906105c49082610ebb565b50604091820151600291909101805460ff1916911515919091179055518281526001600160a01b038416907fe29d35093005f4d575e1003753426b57a7f64378ba73332eef9c6ccc2b8decd69060200160405180910390a250505050565b336000908152600160205260409020541561067f5760405162461bcd60e51b815260206004820152601760248201527f5573657220616c726561647920726567697374657265640000000000000000006044820152606401610253565b600061068b60026109ca565b610696906001610f7b565b6040805160608101825282815260208082018681526000838501819052338152600192839052939093208251815592519394509092908201906106d99082610ebb565b50604091909101516002918201805460ff19169115159190911790556106ff90826109d4565b5060405181815233907fe29d35093005f4d575e1003753426b57a7f64378ba73332eef9c6ccc2b8decd69060200160405180910390a25050565b60005433906001600160a01b031681146107705760405162d1953b60e31b81526001600160a01b0382166004820152602401610253565b816001600160a01b03163b6000036107a6576040516361798f2f60e11b81526001600160a01b0383166004820152602401610253565b6107af826109e7565b5050565b60008054600160a01b900460ff166107cb5750600090565b638fb3603760e01b5b905090565b60606107d46002610a3b565b60006107f0826102be565b801561081757506001600160a01b03821660009081526001602052604090206002015460ff165b92915050565b60016020819052600091825260409091208054918101805461083e90610e30565b80601f016020809104026020016040519081016040528092919081815260200182805461086a90610e30565b80156108b75780601f1061088c576101008083540402835291602001916108b7565b820191906000526020600020905b81548152906001019060200180831161089a57829003601f168201915b5050506002909301549192505060ff1683565b6000806109006108e26000546001600160a01b031690565b86306108f260046000898b610f9c565b6108fb91610fc6565b610a48565b91509150816109c35763ffffffff8116156109a0576000805460ff60a01b198116600160a01b17909155604051634a63ebf760e11b81526001600160a01b03909116906394c7d7ee9061095b90889088908890600401610ff6565b600060405180830381600087803b15801561097557600080fd5b505af1158015610989573d6000803e3d6000fd5b50506000805460ff60a01b19169055506109c39050565b60405162d1953b60e31b81526001600160a01b0386166004820152602401610253565b5050505050565b6000610817825490565b60006109e08383610b54565b9392505050565b600080546001600160a01b0319166001600160a01b0383169081179091556040519081527f2f658b440c35314f52658ea8a740e05b284cdc84dc9ae01e891f21b8933e7cad9060200160405180910390a150565b606060006109e083610ba3565b6040516001600160a01b03848116602483015283811660448301526001600160e01b03198316606483015260009182918291829189169060840160408051601f198184030181529181526020820180516001600160e01b031663b700961360e01b17905251610ab79190611036565b600060405180830381855afa9150503d8060008114610af2576040519150601f19603f3d011682016040523d82523d6000602084013e610af7565b606091505b50915091508115610b49576040815110610b295780806020019051810190610b1f9190611062565b9094509250610b49565b6020815110610b495780806020019051810190610b4691906110a2565b93505b505094509492505050565b6000818152600183016020526040812054610b9b57508154600181810184556000848152602080822090930184905584548482528286019093526040902091909155610817565b506000610817565b606081600001805480602002602001604051908101604052809291908181526020018280548015610bf357602002820191906000526020600020905b815481526020019060010190808311610bdf575b50505050509050919050565b508054610c0b90610e30565b6000825580601f10610c1b575050565b601f016020900490600052602060002090810190610c399190610c3c565b50565b5b80821115610c515760008155600101610c3d565b5090565b80356001600160a01b0381168114610c6c57600080fd5b919050565b600060208284031215610c8357600080fd5b6109e082610c55565b60008060408385031215610c9f57600080fd5b610ca883610c55565b9150610cb660208401610c55565b90509250929050565b634e487b7160e01b600052604160045260246000fd5b600060208284031215610ce757600080fd5b813567ffffffffffffffff80821115610cff57600080fd5b818401915084601f830112610d1357600080fd5b813581811115610d2557610d25610cbf565b604051601f8201601f19908116603f01168101908382118183101715610d4d57610d4d610cbf565b81604052828152876020848701011115610d6657600080fd5b826020860160208301376000928101602001929092525095945050505050565b6020808252825182820181905260009190848201906040850190845b81811015610dbe57835183529284019291840191600101610da2565b50909695505050505050565b60005b83811015610de5578181015183820152602001610dcd565b50506000910152565b8381526060602082015260008351806060840152610e13816080850160208801610dca565b921515604083015250601f91909101601f19160160800192915050565b600181811c90821680610e4457607f821691505b602082108103610e6457634e487b7160e01b600052602260045260246000fd5b50919050565b601f821115610eb6576000816000526020600020601f850160051c81016020861015610e935750805b601f850160051c820191505b81811015610eb257828155600101610e9f565b5050505b505050565b815167ffffffffffffffff811115610ed557610ed5610cbf565b610ee981610ee38454610e30565b84610e6a565b602080601f831160018114610f1e5760008415610f065750858301515b600019600386901b1c1916600185901b178555610eb2565b600085815260208120601f198616915b82811015610f4d57888601518255948401946001909101908401610f2e565b5085821015610f6b5787850151600019600388901b60f8161c191681555b5050505050600190811b01905550565b8082018082111561081757634e487b7160e01b600052601160045260246000fd5b60008085851115610fac57600080fd5b83861115610fb957600080fd5b5050820193919092039150565b6001600160e01b03198135818116916004851015610fee5780818660040360031b1b83161692505b505092915050565b6001600160a01b03841681526040602082018190528101829052818360608301376000818301606090810191909152601f909201601f1916010192915050565b60008251611048818460208701610dca565b9190910192915050565b80518015158114610c6c57600080fd5b6000806040838503121561107557600080fd5b61107e83611052565b9150602083015163ffffffff8116811461109757600080fd5b809150509250929050565b6000602082840312156110b457600080fd5b6109e08261105256fea26469706673582212203267b201bb0f536f0aa5a65d59ea463aed9554eefed98ccedfc0ad404c93f11f64736f6c63430008180033","linkReferences":{}},"methodIdentifiers":{"authority()":"bf7e214f","banUser(address)":"10d86b1f","getRegisteredUserIds()":"99852829","getUserId(address)":"2b956ff7","isConsumingScheduledOp()":"8fb36037","isRegisteredUser(address)":"1f5bdf5d","isUserBanned(address)":"9ed9b4fd","registerUser(string)":"704f1b94","setAuthority(address)":"7a9e5e4b","transferUserId(address,address)":"69852c8a","unbanUser(address)":"4d12b695","users(address)":"a87430ba"},"id":36}